{
  "contractName": "Crowdfunder",
  "abi": [
    {
      "inputs": [
        {
          "internalType": "uint256",
          "name": "_fundingGoal",
          "type": "uint256"
        },
        {
          "internalType": "uint256",
          "name": "_durationInDays",
          "type": "uint256"
        }
      ],
      "stateMutability": "nonpayable",
      "type": "constructor"
    },
    {
      "inputs": [],
      "name": "DeadlinePassed",
      "type": "error"
    },
    {
      "inputs": [],
      "name": "GoalAlreadyMet",
      "type": "error"
    },
    {
      "inputs": [],
      "name": "GoalMet",
      "type": "error"
    },
    {
      "inputs": [],
      "name": "GoalNotMet",
      "type": "error"
    },
    {
      "inputs": [],
      "name": "NoContribution",
      "type": "error"
    },
    {
      "inputs": [],
      "name": "NotProjectOwner",
      "type": "error"
    },
    {
      "anonymous": false,
      "inputs": [
        {
          "indexed": true,
          "internalType": "address",
          "name": "contributor",
          "type": "address"
        },
        {
          "indexed": false,
          "internalType": "uint256",
          "name": "amount",
          "type": "uint256"
        }
      ],
      "name": "Contribution",
      "type": "event"
    },
    {
      "anonymous": false,
      "inputs": [
        {
          "indexed": false,
          "internalType": "uint256",
          "name": "totalAmount",
          "type": "uint256"
        }
      ],
      "name": "GoalReached",
      "type": "event"
    },
    {
      "anonymous": false,
      "inputs": [
        {
          "indexed": true,
          "internalType": "address",
          "name": "recipient",
          "type": "address"
        },
        {
          "indexed": false,
          "internalType": "uint256",
          "name": "amount",
          "type": "uint256"
        }
      ],
      "name": "Payout",
      "type": "event"
    },
    {
      "anonymous": false,
      "inputs": [
        {
          "indexed": true,
          "internalType": "address",
          "name": "contributor",
          "type": "address"
        },
        {
          "indexed": false,
          "internalType": "uint256",
          "name": "amount",
          "type": "uint256"
        }
      ],
      "name": "Refund",
      "type": "event"
    },
    {
      "inputs": [
        {
          "internalType": "address",
          "name": "",
          "type": "address"
        }
      ],
      "name": "contributions",
      "outputs": [
        {
          "internalType": "uint256",
          "name": "",
          "type": "uint256"
        }
      ],
      "stateMutability": "view",
      "type": "function",
      "constant": true
    },
    {
      "inputs": [],
      "name": "currentBalance",
      "outputs": [
        {
          "internalType": "uint256",
          "name": "",
          "type": "uint256"
        }
      ],
      "stateMutability": "view",
      "type": "function",
      "constant": true
    },
    {
      "inputs": [],
      "name": "deadline",
      "outputs": [
        {
          "internalType": "uint256",
          "name": "",
          "type": "uint256"
        }
      ],
      "stateMutability": "view",
      "type": "function",
      "constant": true
    },
    {
      "inputs": [],
      "name": "fundingGoal",
      "outputs": [
        {
          "internalType": "uint256",
          "name": "",
          "type": "uint256"
        }
      ],
      "stateMutability": "view",
      "type": "function",
      "constant": true
    },
    {
      "inputs": [],
      "name": "projectOwner",
      "outputs": [
        {
          "internalType": "address",
          "name": "",
          "type": "address"
        }
      ],
      "stateMutability": "view",
      "type": "function",
      "constant": true
    },
    {
      "inputs": [],
      "name": "donate",
      "outputs": [],
      "stateMutability": "payable",
      "type": "function",
      "payable": true
    },
    {
      "inputs": [],
      "name": "withdraw",
      "outputs": [],
      "stateMutability": "nonpayable",
      "type": "function"
    },
    {
      "inputs": [],
      "name": "refund",
      "outputs": [],
      "stateMutability": "nonpayable",
      "type": "function"
    }
  ],
  "bytecode": "0x60e060405234801561000f575f80fd5b5060405161084438038061084483398101604081905261002e91610059565b3360805260a0829052610044816201518061008f565b61004e90426100ac565b60c052506100bf9050565b5f806040838503121561006a575f80fd5b505080516020909101519092909150565b634e487b7160e01b5f52601160045260245ffd5b80820281158282048414176100a6576100a661007b565b92915050565b808201808211156100a6576100a661007b565b60805160a05160c05161071661012e5f395f8181608e0152818161023f015281816103a4015261055e01525f8181610129015281816101fd015281816103e50152818161051d015261062b01525f818161015c015281816101bd0152818161028c015261033d01526107165ff3fe608060405260043610610079575f3560e01c80637a3a0e841161004c5780637a3a0e8414610118578063a4475ce41461014b578063ce845d1d14610196578063ed88c68e146101aa575f80fd5b806329dcb0cf1461007d5780633ccfd60b146100c357806342e94c90146100d9578063590e1ae314610104575b5f80fd5b348015610088575f80fd5b506100b07f000000000000000000000000000000000000000000000000000000000000000081565b6040519081526020015b60405180910390f35b3480156100ce575f80fd5b506100d76101b2565b005b3480156100e4575f80fd5b506100b06100f336600461068e565b60016020525f908152604090205481565b34801561010f575f80fd5b506100d76103a2565b348015610123575f80fd5b506100b07f000000000000000000000000000000000000000000000000000000000000000081565b348015610156575f80fd5b5061017e7f000000000000000000000000000000000000000000000000000000000000000081565b6040516001600160a01b0390911681526020016100ba565b3480156101a1575f80fd5b506100b05f5481565b6100d761051b565b336001600160a01b037f000000000000000000000000000000000000000000000000000000000000000016146101fb57604051637c2411e960e01b815260040160405180910390fd5b7f00000000000000000000000000000000000000000000000000000000000000005f54101561023d57604051630456f77560e21b815260040160405180910390fd5b7f000000000000000000000000000000000000000000000000000000000000000042101561027e5760405163387b2e5560e11b815260040160405180910390fd5b5f80548180556040519091907f00000000000000000000000000000000000000000000000000000000000000006001600160a01b03169083908381818185875af1925050503d805f81146102ed576040519150601f19603f3d011682016040523d82523d5f602084013e6102f2565b606091505b505090508061033b5760405162461bcd60e51b815260206004820152601060248201526f2a3930b739b332b9103330b4b632b21760811b60448201526064015b60405180910390fd5b7f00000000000000000000000000000000000000000000000000000000000000006001600160a01b03167f5afeca38b2064c23a692c4cf353015d80ab3ecc417b4f893f372690c11fbd9a68360405161039691815260200190565b60405180910390a25050565b7f00000000000000000000000000000000000000000000000000000000000000004210156103e35760405163387b2e5560e11b815260040160405180910390fd5b7f00000000000000000000000000000000000000000000000000000000000000005f541061042457604051637ffaf15f60e01b815260040160405180910390fd5b335f908152600160205260408120549081900361045457604051631971fbf360e21b815260040160405180910390fd5b335f818152600160205260408082208290555190919083908381818185875af1925050503d805f81146104a2576040519150601f19603f3d011682016040523d82523d5f602084013e6104a7565b606091505b50509050806104e95760405162461bcd60e51b815260206004820152600e60248201526d2932b33ab732103330b4b632b21760911b6044820152606401610332565b60405182815233907fbb28353e4598c3b9199101a66e0989549b659a59a54d2c27fbb183f1932c8e6d90602001610396565b7f00000000000000000000000000000000000000000000000000000000000000005f541061055c57604051634d09533360e01b815260040160405180910390fd5b7f0000000000000000000000000000000000000000000000000000000000000000421061059c5760405163387b2e5560e11b815260040160405180910390fd5b345f036105bc57604051631971fbf360e21b815260040160405180910390fd5b345f808282546105cc91906106bb565b9091555050335f90815260016020526040812080543492906105ef9084906106bb565b909155505060405134815233907f4d154d4aae216bed6d0926db77c00df2b57c6b5ba4eee05775de20facede3a7b9060200160405180910390a27f00000000000000000000000000000000000000000000000000000000000000005f541061068c577ffbfd8ab7c24300fa9888cd721c8565a7da56759384781283684dcf7c7c4a846b5f5460405161068391815260200190565b60405180910390a15b565b5f6020828403121561069e575f80fd5b81356001600160a01b03811681146106b4575f80fd5b9392505050565b808201808211156106da57634e487b7160e01b5f52601160045260245ffd5b9291505056fea2646970667358221220b453434e0d2d332764448a08e59a007522ab3f23645045570d35e3e28e13394264736f6c63430008140033",
  "immutableReferences": {
    "3": [
      {
        "length": 32,
        "start": 348
      },
      {
        "length": 32,
        "start": 445
      },
      {
        "length": 32,
        "start": 652
      },
      {
        "length": 32,
        "start": 829
      }
    ],
    "5": [
      {
        "length": 32,
        "start": 297
      },
      {
        "length": 32,
        "start": 509
      },
      {
        "length": 32,
        "start": 997
      },
      {
        "length": 32,
        "start": 1309
      },
      {
        "length": 32,
        "start": 1579
      }
    ],
    "7": [
      {
        "length": 32,
        "start": 142
      },
      {
        "length": 32,
        "start": 575
      },
      {
        "length": 32,
        "start": 932
      },
      {
        "length": 32,
        "start": 1374
      }
    ]
  },
  "source": "// contracts/Crowdfunder.sol\r\n// SPDX-License-Identifier: MIT\r\npragma solidity 0.8.20; // Pinning to the version in truffle-config.js\r\n\r\ncontract Crowdfunder {\r\n    // State Variables\r\n    address public immutable projectOwner;\r\n    uint public immutable fundingGoal;\r\n    uint public immutable deadline;\r\n    uint public currentBalance;\r\n\r\n    // Mapping to track contributions: contributor address => amount contributed\r\n    mapping(address => uint) public contributions;\r\n\r\n    // Events for logging activity\r\n    event Contribution(address indexed contributor, uint amount);\r\n    event GoalReached(uint totalAmount);\r\n    event Payout(address indexed recipient, uint amount);\r\n    event Refund(address indexed contributor, uint amount);\r\n\r\n    // Errors for better error handling\r\n    error GoalAlreadyMet();\r\n    error DeadlinePassed();\r\n    error GoalNotMet();\r\n    error GoalMet();\r\n    error NotProjectOwner();\r\n    error NoContribution();\r\n\r\n    /**\r\n     * @notice Constructor sets the owner, goal (in Wei), and deadline (in seconds).\r\n     */\r\n    constructor(uint _fundingGoal, uint _durationInDays) {\r\n        projectOwner = msg.sender;\r\n        fundingGoal = _fundingGoal;\r\n        // 1 days = 24 * 60 * 60 seconds\r\n        deadline = block.timestamp + (_durationInDays * 1 days);\r\n    }\r\n\r\n    /**\r\n     * @notice Allows anyone to contribute funds to the project.\r\n     * This is a 'payable' function.\r\n     */\r\n    function donate() external payable {\r\n        if (currentBalance >= fundingGoal) {\r\n            revert GoalAlreadyMet();\r\n        }\r\n        if (block.timestamp >= deadline) {\r\n            revert DeadlinePassed();\r\n        }\r\n        if (msg.value == 0) {\r\n            revert NoContribution();\r\n        }\r\n\r\n        currentBalance += msg.value;\r\n        contributions[msg.sender] += msg.value;\r\n\r\n        emit Contribution(msg.sender, msg.value);\r\n\r\n        if (currentBalance >= fundingGoal) {\r\n            emit GoalReached(currentBalance);\r\n        }\r\n    }\r\n\r\n    /**\r\n     * @notice Scenario A: Allows the project owner to withdraw funds if the goal is met and deadline passed.\r\n     */\r\n    function withdraw() external {\r\n        if (msg.sender != projectOwner) {\r\n            revert NotProjectOwner();\r\n        }\r\n        if (currentBalance < fundingGoal) {\r\n            revert GoalNotMet();\r\n        }\r\n        if (block.timestamp < deadline) {\r\n            revert DeadlinePassed(); \r\n        }\r\n\r\n        uint amountToTransfer = currentBalance;\r\n        currentBalance = 0;\r\n\r\n        // Use call for secure ETH transfer\r\n        (bool success, ) = payable(projectOwner).call{value: amountToTransfer}(\"\");\r\n        require(success, \"Transfer failed.\");\r\n\r\n        emit Payout(projectOwner, amountToTransfer);\r\n    }\r\n\r\n    /**\r\n     * @notice Scenario B: Allows contributors to get a refund if the goal was NOT met and deadline passed.\r\n     */\r\n    function refund() external {\r\n        if (block.timestamp < deadline) {\r\n            revert DeadlinePassed();\r\n        }\r\n        if (currentBalance >= fundingGoal) {\r\n            revert GoalMet();\r\n        }\r\n\r\n        uint amount = contributions[msg.sender];\r\n        if (amount == 0) {\r\n            revert NoContribution();\r\n        }\r\n\r\n        contributions[msg.sender] = 0;\r\n\r\n        // Use call for secure ETH transfer back to contributor\r\n        (bool success, ) = payable(msg.sender).call{value: amount}(\"\");\r\n        require(success, \"Refund failed.\");\r\n\r\n        emit Refund(msg.sender, amount);\r\n    }\r\n}",
  "sourcePath": "C:\\CrowdfundDApp\\contracts\\Crowdfunder.sol",
  "compiler": {
    "name": "solc",
    "version": "0.8.20+commit.a1b79de6.Emscripten.clang"
  },
  "schemaVersion": "3.4.16",
  "updatedAt": "2025-11-17T12:37:35.497Z",
  "networkType": "ethereum",
  "devdoc": {
    "kind": "dev",
    "methods": {},
    "version": 1
  },
  "userdoc": {
    "kind": "user",
    "methods": {
      "constructor": {
        "notice": "Constructor sets the owner, goal (in Wei), and deadline (in seconds)."
      },
      "donate()": {
        "notice": "Allows anyone to contribute funds to the project. This is a 'payable' function."
      },
      "refund()": {
        "notice": "Scenario B: Allows contributors to get a refund if the goal was NOT met and deadline passed."
      },
      "withdraw()": {
        "notice": "Scenario A: Allows the project owner to withdraw funds if the goal is met and deadline passed."
      }
    },
    "version": 1
  }
}